S01200004C6162324430303033452E7372656385
S11300000C9438000C9455000C9455000C94320157
S11300100C9455000C9455000C9455000C94550008
S11300200C9455000C9455000C9455000C945500F8
S11300300C9455000C9455000C9455000C945500E8
S11300400C9455000C9455000C9455000C945500D8
S11300500C9455000C9455000C9455000E02BD01EF
S1130060C601CF01D801E101EA01F301FC01050257
S113007011241FBECFEFD4E0DEBFCDBF11E0A0E05E
S1130080B1E0E8EEF7E002C005900D92A430B107AC
S1130090D9F723E0A4E0B1E001C01D92A932B20770
S11300A0E1F70E945E030C94F2030C940000DC015F
S11300B015961C921E921497DB01ED91FC911197F9
S11300C0309721F48D939C930895F901248135810F
S11300D021153105D1F7958384830895CF93DF9358
S11300E000D0CDB7DEB79A838983809100019091C7
S11300F0010106960E94B103892B59F489819A81E2
S1130100909301018093000161E070E006960E94E3
S1130110D1030F900F90DF91CF910895CF93DF9388
S113012000D0CDB7DEB7AC01F89480910401909172
S11301300501892B19F582EE91E090937A01809361
S113014079018FE492E09093E7018093E6018CEBD0
S113015092E090935402809353021092C102109241
S1130160C00290E894B995B915BE90936C009DBBFC
S113017081E090E090930501809304018091020155
S1130180909103019A8389830097A1F0FC018481F3
S1130190958190930301809302015183408373837B
S11301A0628315821482CF0106960E94B1030197DF
S11301B049F501C0FFCF7894A0910001B0910101ED
S11301C0ED91FC91119712968D919C91139709953D
S11301D0F89462E071E080910001909101010E9425
S11301E057008091060190910701009751F0FC019E
S11301F02481358130930701209306010E946E000B
S113020001C0FFCFE981FA81369689819A818759A5
S11302109F4F918B808B938B828B66E071E08981F9
S11302209A810E94570078940F900F90DF91CF919C
S1130230089566E071E080910001909101010E94AF
S113024057008091060190910701009751F0FC013D
S11302502481358130930701209306010E946E00AA
S11302600895FFCF1F920F920FB60F9211240F9093
S11302700FBE0F901F90189586E38093E50087E0EA
S11302808093E6008FE08093E70080EC8093E400A5
S113029008954F925F926F927F928F929F92AF9246
S11302A0BF92CF92DF92EF92FF92CF93DF934B01F5
S11302B05C01DC01CB0181709927AA27B078BB23AC
S11302C054F40197A109B1098E6F9F6FAF6FBF6F8F
S11302D00196A11DB11D892B8A2B8B2B69F182E01C
S11302E088169104A104B1044CF12401350181E084
S11302F0481A51086108710882E0481651046104E3
S11303007104F1F0C2E0D0E005C0C414D504E604E1
S1130310F704C1F021966E010D2E000CEE08FF08C3
S1130320C501B401A70196010E946A03672B682BDB
S1130330692B59F780E007C080E005C080E003C066
S113034081E001C081E0DF91CF91FF90EF90DF90D9
S1130350CF90BF90AF909F908F907F906F905F9061
S11303604F90089590E0FC01F097EA30F10508F011
S113037051C1E25DFF4F0C94890380E090E021E0DD
S113038030E041E050E0E0E0F0E050C081E090E097
S11303902EE030E041E050E0E1E0F0E047C081E0F1
S11303A090E02BE030E041E050E0E1E0F0E03EC0DE
S11303B080E090E02BE030E045E050E0E0E0F0E069
S11303C035C081E090E02BE030E044E050E0E1E033
S11303D0F0E02CC081E090E02FE030E044E050E019
S11303E0E1E0F0E023C080E090E021E030E041E093
S11303F050E0E1E0F0E01AC081E090E02FE030E06E
S113040045E050E0E1E0F0E011C081E090E02BE055
S113041030E045E050E0E1E0F0E008C081E090E049
S113042025E030E045E050E0E1E0F0E062307105C5
S113043009F45DC03CF46115710579F06130710512
S113044029F108956430710509F49BC00CF468C067
S11304506530710509F4AEC00895ACEEB0E06C915E
S1130460607FE62BEC93E1EFF0E06081607F462B48
S11304704083E6EFF0E04081407F242B2083EBEFC4
S1130480F0E02081207F822B80830895ACEEB0E0E1
S11304906C916F70E295F295F07FFE27E07FFE2766
S11304A0E62BEC93E1EFF0E060816F70429552959A
S11304B0507F5427407F5427462B4083E6EFF0E0DB
S11304C040814F7022953295307F3227207F32272A
S11304D0242B2083EBEFF0E020812F7082959295FE
S11304E0907F9827807F9827822B80830895ADEE94
S11304F0B0E06C91607FE62BEC93E2EFF0E060817A
S1130500607F462B4083E7EFF0E04081407F242B5F
S11305102083ECEFF0E02081207F822B80830895FC
S1130520ADEEB0E06C916F70E295F295F07FFE272E
S1130530E07FFE27E62BEC93E2EFF0E060816F7042
S113054042955295507F5427407F5427462B408331
S1130550E7EFF0E040814F7022953295307F3227EB
S1130560207F3227242B2083ECEFF0E020812F70B2
S113057082959295907F9827807F9827822B8083FD
S11305800895AEEEB0E06C91607FE62BEC93E3EF60
S1130590F0E06081607F462B4083E8EFF0E040812B
S11305A0407F242B2083EDEFF0E02081207F822BFD
S11305B080830895AEEEB0E06C916F70E295F29591
S11305C0F07FFE27E07FFE27E62BEC93E3EFF0E0DD
S11305D060816F7042955295507F5427407F542715
S11305E0462B4083E8EFF0E040814F70229532952E
S11305F0307F3227207F3227242B2083EDEFF0E059
S113060020812F7082959295907F9827807F9827DC
S1130610822B808308958F929F92AF92BF92CF9244
S1130620DF92EF92FF92CF93DF934B015C01EA01DB
S113063024E630E040E050E00E946A030F2EFAE026
S1130640CF2ED12CE12CF12CF02DA70196010E9484
S11306506A03BE0180E3820F0E94B2012196C501A4
S1130660B401A70196010E946A03862FBE01805D32
S11306700E94B201DF91CF91FF90EF90DF90CF9075
S1130680BF90AF909F908F900895EC01C12CD12C16
S11306907601C394C701B6010E944901882341F041
S11306A0AE01C701B6010E940B031F9B0E941901F2
S11306B08FEFC81AD80AE80AF80AECCF0E943C0166
S11306C063E070E085E493E00E948E0080E090E0B7
S11306D00E944503052E97FB1EF400940E9481039B
S11306E057FD07D00E948F0307FC03D04EF40C94EF
S11306F0810350954095309521953F4F4F4F5F4F63
S1130700089590958095709561957F4F8F4F9F4F79
S11307100895EE0FFF1F0590F491E02D0994A1E2D6
S11307201A2EAA1BBB1BFD010DC0AA1FBB1FEE1F67
S1130730FF1FA217B307E407F50720F0A21BB30BB2
S1130740E40BF50B661F771F881F991F1A9469F72E
S113075060957095809590959B01AC01BD01CF018A
S11307600895DC012D923D924D925D926D927D92A1
S11307708D929D92AD92BD92CD92DD92ED92FD92BD
S11307800D931D93CD93DD93FF91EF918DB78D93D1
S11307908EB78D938FB78D93ED93FD93882799270B
S11307A00994DC01CB0181309105811D2D903D9090
S11307B04D905D906D907D908D909D90AD90BD908D
S11307C0CD90DD90ED90FD900D911D91CD91DD9139
S11307D0ED91FD910D90F894FEBF0FBEEDBFED912C
S10B07E0FD910994F894FFCF88
S10707E8080175018A
S9030000FC
